:020000020000FC
:0200000016C028
:02000400F3C047
:10002C0073C04427222400277727992788270AB9E9
:10003C0004B953D19CD0C6D025D3DFD17894FBD250
:10004C00E6D21AD2E4D1C2D0FED2ACD09DD0482F89
:10005C0096D190D1E1D2C0F7E6D2803039F0813020
:10006C0039F0823039F0833039F0EECF07D0ECCF55
:10007C0030D0EACF07D0E8CF30D0E6CFA0E0B1E067
:10008C0005D00895A4EFB2E001D00895D4D29ED04B
:10009C00F5E0EAECD4D100EF0D939FEF903FF1F334
:1000AC005AD04EE152D1C7D250D1D5D24A95D1F7C0
:1000BC004427903F21F040918400409185004D935E
:1000CC00F894D6D24ED087D04FEF4D934D934D939D
:1000DC000895A0E0B1E005D00895A4EFB2E001D0FE
:1000EC000895992700270093890000938800F5E074
:1000FC00E2EFA5D170D097D278942DD09F3FF1F735
:10010C00B7D22FD063D008950F930FB70F934F939F
:10011C003F932F93813079F0833069F000EF4FEFEC
:10012C002FB7F8944D930D9344274093850040933B
:10013C0084002FBF09C03D91932FA7D22AD13D91A6
:10014C0030938900309388002F913F914F910F91FC
:10015C000FBF0F9118950F9302E000936F000F9152
:10016C0008950F9300E000936F000F910895219A6A
:10017C0000E0009380000DE0009381000FEF0093EE
:10018C008900009388000895723019F0713029F0BD
:10019C0008C0803031F08A9503C0833011F083950C
:1001AC0036D1089509B1007C003C11F4772709C0C1
:1001BC00003811F472E001C071E009B1007C003C20
:1001CC00E1F7089500E00093690008950F9301E0B2
:1001DC000DBB0F9108950F9300E00DBB0F91089587
:1001EC000F930FB70F933F934F932F931F93332777
:1001FC00222718E048D01A9B02C023950894379503
:10020C001A95C1F740D01A992395269508F000C08D
:10021C003AD04A9BFECF903F09F43FEF803011F06B
:10022C00823039F0CFEED2E0AC1751F4BD1741F467
:10023C0008C003EE14E0A01719F4B11709F401C0BB
:10024C000CD0932F002700931C001F912F914F91DE
:10025C003F910F910FBF0F911895931799F0903F05
:10026C0089F016D078F411D22FB7F894109184003D
:10027C00109185001D933D931127109385001093C9
:10028C0084002FBF08954A9BFECF4A99FECF089554
:10029C00F6E0E8EC88941491311721F03F3F19F007
:1002AC003296F9CF089408955F93EF93FF93E4EDA2
:1002BC00F2E04FEF4395403119F055915317D1F7B8
:1002CC00FF91EF915F91089545161E26252E363D20
:1002DC003E461C322123242BF0000F9308E00093A0
:1002EC00B80004E00093BC000F910895000F17D0E4
:1002FC000BD0032F09D01AD008950F930091BC0096
:10030C0007FFFCCF0F9108950F930093BB0002D011
:10031C000F91089504E80093BC00EFDF08950F934C
:10032C0004EA0093BC00E9DF0F9108950F9304E9F0
:10033C000093BC000F9108950F930FEF0A95F1F7FE
:10034C000FEF0A95F1F70F9108950F931F932F93C9
:10035C0020E10FEF1FEF1A95F1F70A95D9F72A95BF
:10036C00C1F72F911F910F9108950F9305E2BEDFF6
:10037C000F9108950F9304E2B9DF0F910895FF9345
:10038C00EF93EEEAF3E0E40FF21D3491EF91FF915D
:10039C000895903F11F430E802C086DFF0DFE5DF0E
:1003AC0008953F065B4F666D7D077F6F777C395EE6
:1003BC0079710000CADF00E2000FB1DFA5DF04E3B2
:1003CC00A3DF00E3A1DF04E39FDF00E39DDF04E391
:1003DC009BDF00E399DF04E297DF00E295DFACDFFF
:1003EC00A5DF20E230E85AD0A7DF20E030EE56D06F
:1003FC00A3DF20E030E652D00895DCDFA6DF3CD04E
:10040C0072E024D039D07A95E1F715D00895803078
:10041C0039F0813041F0823049F0F5E0E8EA09C06A
:10042C00F5E0E0E406C0F5E0E2E603C0F5E0E6E85E
:10043C0000C005D00895F5E0E2E201D0089530E067
:10044C0024D045D038E221D042D00895F4E0E6EE35
:10045C00F6DF39D038D010D0F5E0E4E0F0DF33D05F
:10046C0032D031D00895322F207F3295307F01E089
:10047C00200F300F13D0089520E030E10FD065DF4E
:10048C00089520E030E20AD00895232F207F10E851
:10049C00210F3F7032950E945402089500E21CE037
:1004AC00000F3DDF31DF022F010F2EDF45DF04503F
:1004BC002BDF032F010F28DF3FDF045025DF36DF52
:1004CC0008952591089541DF40DF3FDF0895F9DF5E
:1004DC00203011F0C8DFFBCF089557696E646F7739
:1004EC00730075707064617465726173202E2E2EAA
:1004FC002E2020202020202056617220476F64205F
:10050C006472EF6A2E005374E16E6720656A206195
:10051C00762120202020547279636B20696E207222
:10052C006F740066EF72206174742073746172745E
:10053C00612E20205370656C6120696E2020233160
:10054C00A520207F005370656C612075707020238E
:10055C0031A5202020205370656C612075707020AF
:10056C002331A520207F005370656C6120696E20BB
:10057C00202332A52020202020005370656C6120A0
:10058C00696E20202332A520207F005370656C619A
:10059C0020757070202332A5202020205370656CAC
:1005AC006120757070202332A520207F0020202030
:1005BC0020202020202020202020202020205370AC
:1005CC00656C617220696E20202020200020202084
:1005DC00202020202020202020202020202020200F
:1005EC002020202020005370656C61722075707083
:1005FC00202020202020002020202020202020200F
:10060C0020202020202020202020202020004B995A
:10061C00FECF4B9BFECF089588944B9903C04B9B08
:10062C00FECF089408950F933F9306E232E05EDE0E
:10063C003F910F9108950F933F9306E231E056DE00
:10064C003F910F9108950F933F9306E230E04EDEF9
:10065C003F910F9108950F933F9306E233E046DEEE
:10066C003F910F9108950F9304E005BD0F910895EC
:10067C000F9300E005BD0F9108950F9302E104BDA7
:10068C000F910895559AF9DF0895EF93FF930F9307
:10069C00E8ECF6E0303F69F03F3F59F0E4DF0591BC
:1006AC00031721F00F3F29F03196F9CF049107BDC4
:1006BC0001C0DEDF0F91FF91EF9108951C8E1D8616
:1006CC001B7F247723712B6A2C64345E3559335489
:0806DC003C4F3B4B4246FFFF7F
:00000001FF
